:100000000C9400010C9414010C9414010C94140130
:100010000C9414010C9414010C9414010C9414010C
:100020000C9414010C9414010C9414010C941401FC
:100030000C9414010C9414010C9414010C941401EC
:100040000C9414010C9414010C9414010C941401DC
:100050000C9414010C9414010C9414010C941401CC
:100060000C9414010C9414010C9414010C941401BC
:100070000C9414010C9414010C9414010C941401AC
:100080000C9414010C9414010C9414010C9414019C
:100090000C9414010C9414010C9414010C9414018C
:1000A0000C9414010C9414010C9414010C9414017C
:1000B0000C9414010C9443010C9414010C9414013D
:1000C0000C9414010C9414010C9414010C9414015C
:1000D0000C9414010C9414010C9414010C9414014C
:1000E0000C9414010C9414010C9414010C9414013C
:1000F0000C9414010C9414010C9414010C9414012C
:100100000C9414010C9414010C9414010C9414011B
:100110000C9414010C9414010C9414010C9414010B
:100120000C9414010C9414010C9414010C941401FB
:100130000C9414010C9414010C9414010C941401EB
:100140000C9414010C9414010C9414010C941401DB
:100150000C9414010C9414010C9414010C941401CB
:100160000C9414010C9414010C9414010C941401BB
:100170000C9414010C9414010C9414010C941401AB
:100180000C9414010C9414010C9414010C9414019B
:100190000C9414010C9414010C9414010C9414018B
:1001A0000C9414010C9414010C9414010C9414017B
:1001B0000C9414010C9414010C9414010C9414016B
:1001C0000C9414010C9414010C9414010C9414015B
:1001D0000C9414010C9414010C9414010C9414014B
:1001E0000C9414010C9414010C9414010C9414013B
:1001F0000C9414010C9414010C9414010C94160129
:1002000011241FBECFEFCDBFDFE5DEBF00E00CBF86
:1002100020E2A0E0B0E201C01D92A936B207E1F7EA
:100220000E94B5020C94E3020C940000E09164205B
:10023000F0E0EC5BFF4D8481A0E0B0E2EC91F0E0F7
:10024000E050F04E83838C918F5F8C938C9180343F
:1002500011F41092002080910220803430F4E0E00C
:10026000F0E282818F5F82830895E0E0F0E281E036
:100270008093432081818F5F81838181803411F459
:100280001092012008951F920F920FB60F92112421
:100290000BB60F922F933F934F935F936F937F9380
:1002A0008F939F93AF93BF93EF93FF9384E490E278
:1002B0000E948602FF91EF91BF91AF919F918F9124
:1002C0007F916F915F914F913F912F910F900BBE56
:1002D0000F900FBE0F901F901895CF93C82F46E137
:1002E00051E060EA74E084E490E20E94C40140E4DA
:1002F0006C2F84E490E20E94CF01CF9108950F9378
:10030000CF93DF931F92CDB7DEB78091880680FF31
:1003100019C01EC000C0019729F0208520FFFACF28
:1003200017C0FFCF8FB789838FB78F778FBF1BBE63
:1003300021E089E790E0FC0108ED04BF208389817A
:100340008FBFEFCF00C087EE93E0E0E8F6E0E5CFA7
:100350000F90DF91CF910F910895E0E0F6E08FEFDD
:1003600085838183E0E2F6E087E0858381830895D9
:1003700084E080932706089582E0809326060895FE
:1003800082E0809325060895FC0160837183428397
:10039000538310A211A212A213A214A20895DC0189
:1003A000ED91FC91119748634087ED91FC91660FA8
:1003B00063870895FC0184A1882351F0A081B18155
:1003C00082E019968C9386E083A312A214A208956A
:1003D00081E082A313A2A081B18118968C91189715
:1003E0008B7F18968C9310A211A20190F081E02DC2
:1003F00083E081870895FC01A081B18118968C91DA
:1004000018978B7F18968C93A081B1811A968C9146
:100410001A9780641A968C9381E083A312A20895A0
:10042000CF93DF93FC01A081B18118968C9118972E
:10043000846018968C9380A1883008F5EF010190B4
:10044000F081E02D848598A1FE01E90FF11D8483E0
:10045000EA81FB81199588A18F5F88A38CA18823ED
:1004600049F0E881F98182E0818786E08BA31AA2B6
:100470001CA20DC0E881F98183E0818708C0A081BA
:10048000B18186E019968C9382E083A312A2DF915A
:10049000CF910895FC0181A1882371F0A081B181E1
:1004A0001A968C911A9784FF07C082E019968C9354
:1004B00081E083A312A2089581A1843198F481A1DF
:1004C000DF01A80FB11D1C968C91A081B1811C96F3
:1004D0008C9381A18F5F81A30190F081E02D83E057
:1004E00081870895A081B18182E019968C9383A3BE
:1004F00012A20895DC01ED91FC91228521FF03C039
:100500000E944A0208950E9410020895FC01A081F1
:10051000B1811A968C9182FF06C010A211A284E0CC
:1005200083A312A2089583FF06C010A211A283E044
:1005300083A312A20895282F2074982F91749134C8
:1005400021F4CF010E94DA010895222321F0CF0186
:100550000E94FB010895882324F4CF010E947A02AF
:10056000089585E083A312A208950E94AD0181E061
:100570000E946D01C6E00E94B8012FE788E391E078
:10058000215080409040E1F700C00000C15099F731
:100590000E947F010E94BC012FE38DE093E0215077
:1005A00080409040E1F700C000000E947F010E945F
:1005B000C0012FE38DE093E0215080409040E1F7AF
:0A05C00000C00000E5CFF894FFCF63
:00000001FF
