S01600006D6F746F724472697665546573742E7372656343
S11300000C94FE000C940A010C940A010C940A014D
S11300100C940A010C940A010C940A010C940A0130
S11300200C940A010C940A010C940A010C940A0120
S11300300C940A010C940A010C940A010C940A0110
S11300400C940A010C940A010C940A010C940A0100
S11300500C940A010C940A010C940A010C940A01F0
S11300600C940A010C940A010C940A010C940A01E0
S11300700C940A010C940A010C940A010C940A01D0
S11300800C940A010C940A010C940A010C940A01C0
S11300900C940A010C940A010C940A010C940A01B0
S11300A00C940A010C940A010C940A010C940A01A0
S11300B00C940A010C940A010C940A010C940A0190
S11300C00C940A010C940A010C940A010C940A0180
S11300D00C940A010C940A010C940A010C940A0170
S11300E00C940A010C940A010C940A010C940A0160
S11300F00C940A010C940A010C940A010C940A0150
S11301000C940A010C940A010C940A010C940A013F
S11301100C940A010C940A010C940A010C940A012F
S11301200C940A010C940A010C940A010C940A011F
S11301300C940A010C940A010C940A010C940A010F
S11301400C940A010C940A010C940A010C940A01FF
S11301500C940A010C940A010C940A010C940A01EF
S11301600C940A010C940A010C940A010C940A01DF
S11301700C940A010C940A010C940A010C940A01CF
S11301800C940A010C940A010C940A010C940A01BF
S11301900C940A010C940A010C940A010C940A01AF
S11301A00C940A010C940A010C940A010C940A019F
S11301B00C940A010C940A010C940A010C940A018F
S11301C00C940A010C940A010C940A010C940A017F
S11301D00C940A010C940A010C940A010C940A016F
S11301E00C940A010C940A010C940A010C940A015F
S11301F00C940A010C940A010C940A0111241FBEE8
S1130200CFEFCDBFDFE5DEBF00E00CBF0E94710180
S11302100C9494010C940000E0E0F6E08FEF8583E9
S11302208183E0E2F6E087E0858381830895809509
S11302308093040608955FE050934106E0E0F8E0FF
S113024045E041838181806A81832FEF30E026A3DA
S113025037A394E0908350936106E0E0F9E0418392
S11302608181806A818326A337A390830895181619
S1130270D4F4A0E4B6E094E016969C931697E0E0DC
S1130280F8E012A613A626A137A120A331A3880F54
S113029090E086A797A786A197A180A391A381E068
S11302A015968C930895803809F481E8A0E4B6E0AB
S11302B091E016969C931697E0E0F8E016A617A630
S11302C026A137A120A331A38195880F90E082A7AE
S11302D093A786A197A180A391A384E015968C93FC
S11302E008950E941B010E940C0181E00E941701E5
S11302F08FE70E9437012FE78AE196E02150804082
S11303009040E1F700C0000082E00E94170181E8FC
S11303100E9437012FE78AE196E021508040904007
S10F0320E1F700C00000E1CFF894FFCF2B
S9030000FC
