S010000071646563546573742E73726563D7
S11300000C94FE000C941D010C941D010C941D0114
S11300100C941D010C941D010C941D010C941D01E4
S11300200C941D010C941D010C941D010C941D01D4
S11300300C941D010C941D010C941D010C941D01C4
S11300400C941D010C941D010C941D010C941D01B4
S11300500C941D010C941D010C941D010C941D01A4
S11300600C941D010C941D010C941D010C941D0194
S11300700C941D010C941D010C941D010C941D0184
S11300800C941D010C941D010C941D010C941D0174
S11300900C941D010C941D010C941D010C941D0164
S11300A00C941D010C941D010C941D010C941D0154
S11300B00C941D010C941D010C941D010C941D0144
S11300C00C941D010C941D010C941D010C941D0134
S11300D00C941D010C941D010C941D010C941D0124
S11300E00C941D010C941D010C941D010C941D0114
S11300F00C941D010C941D010C941D010C941D0104
S11301000C941D010C941D010C941D010C941D01F3
S11301100C941D010C941D010C941D010C941D01E3
S11301200C941D010C941D010C941D010C941D01D3
S11301300C941D010C941D010C941D010C941D01C3
S11301400C941D010C941D010C941D010C941D01B3
S11301500C941D010C941D010C941D010C941D01A3
S11301600C941D010C941D010C941D010C941D0193
S11301700C941D010C941D010C941D010C941D0183
S11301800C941D010C941D010C941D010C941D0173
S11301900C941D010C941D010C941D010C941D0163
S11301A00C941D010C941D010C941D010C941D0153
S11301B00C941D010C941D010C941D010C941D0143
S11301C00C941D010C941D010C941D010C941D0133
S11301D00C941D010C941D010C941D010C941D0123
S11301E00C941D010C941D010C941D010C941D0113
S11301F00C941D010C941D010C941D0111241FBEAF
S1130200CFEFCDBFDFE2DEBF10E2A0E0B0E2E0EC72
S1130210F4E000E00BBF02C007900D92A430B107D8
S1130220D9F720E2A4E0B0E201C01D92A630B207E3
S1130230E1F70E94CB010C945E020C940000E0E014
S1130240F6E08FEF85838183E0E2F6E087E0858343
S11302508183089584E080932606089584E0809342
S11302602506089581E080932606089581E0809311
S11302702506089580958093040608951F93CF93CF
S1130280DF938093022090930320E0E4F6E090E370
S11302909283C0EBD0E098838089887F8360808BD1
S11302A0E0E8F1E084E6808319E01087A0E0BAE09A
S11302B028E613962C93139751E05C93818343E0D3
S11302C04187A0E4B8E089EA13968C93139730E150
S11302D011963C93119722E02C9360930020709325
S11302E00120A0E6B6E012969C9312979883549648
S11302F08C915497887F836054968C938CE6828388
S11303001287A0E0BBE09AE613969C9313975C9344
S113031083834387E0E4F9E08BEA8383318320839A
S1130320DF91CF911F91089580914C0880FF05C003
S1130330109204201092052025C080914C0884FF5F
S113034021C0A0916808B0916908209102203091E1
S113035003200E942D029B01AC0160E07AE285E754
S113036095E10E940E022093042030930520809191
S1130370090A80FF07C03195219531092093042093
S11303803093052080910420909105200895809158
S1130390090A8170089560E679E080E699E00E9498
S11303A03E010E941F010E94C701882319F00E9488
S11303B0320102C00E9436010E949401EC0199238B
S11303C034F40E942A01D195C195D10902C00E943A
S11303D02E0181E01C161D060CF080E0C333D1050C
S11303E00CF08260C536D1050CF08460C739D105A4
S11303F00CF08860C93CD1050CF08061CB3FD1057D
S11304000CF08062CD3291E0D9070CF08064CF35D6
S1130410D1400CF080680E943A01C5CF052E97FBAD
S11304201EF400940E94250257FD07D00E943C024E
S113043007FC03D04EF40C9425025095409530955A
S113044021953F4F4F4F5F4F08959095809570953C
S113045061957F4F8F4F9F4F0895A29FB001B39F27
S1130460C001A39F700D811D1124911DB29F700DB9
S1130470811D1124911D0895A1E21A2EAA1BBB1BF4
S1130480FD010DC0AA1FBB1FEE1FFF1FA217B3075C
S1130490E407F50720F0A21BB30BE40BF50B661F72
S11304A0771F881F991F1A9469F760957095809536
S11304B090959B01AC01BD01CF010895F894FFCF45
S10704C0640064006C
S9030000FC
