:100000000C9400010C9421010C9421010C94210109
:100010000C9421010C9421010C9421010C942101D8
:100020000C9421010C9421010C9421010C942101C8
:100030000C9421010C9421010C9421010C942101B8
:100040000C9421010C9421010C9421010C942101A8
:100050000C9421010C9421010C9421010C94210198
:100060000C9421010C9421010C9421010C94210188
:100070000C9421010C9421010C9421010C94210178
:100080000C9421010C9421010C9421010C94210168
:100090000C9421010C9421010C9421010C94210158
:1000A0000C9421010C9421010C9421010C94210148
:1000B0000C9421010C9468010C9421010C942101F1
:1000C0000C9421010C9421010C9421010C94210128
:1000D0000C9421010C9421010C9421010C94210118
:1000E0000C9421010C9421010C9421010C94210108
:1000F0000C9421010C9421010C9421010C942101F8
:100100000C9421010C9421010C9421010C942101E7
:100110000C9421010C9421010C9421010C942101D7
:100120000C9421010C9421010C9421010C942101C7
:100130000C9421010C9421010C9421010C942101B7
:100140000C9421010C9421010C9421010C942101A7
:100150000C9421010C9421010C9421010C94210197
:100160000C9421010C9421010C9421010C94210187
:100170000C9421010C9421010C9421010C94210177
:100180000C9421010C9421010C9421010C94210167
:100190000C9421010C9421010C9421010C94210157
:1001A0000C9421010C9421010C9421010C94210147
:1001B0000C9421010C9421010C9421010C94210137
:1001C0000C9421010C9421010C9421010C94210127
:1001D0000C9421010C9421010C9421010C94210117
:1001E0000C9421010C9421010C9421010C94210107
:1001F0000C9421010C9421010C9421010C942301F5
:1002000011241FBECFEFCDBFDFE5DEBF00E00CBF86
:1002100010E2A0E0B0E2E8E0F9E100E00BBF02C0CC
:1002200007900D92A638B107D9F722E2A6E8B0E20E
:1002300001C01D92AA35B207E1F70E945A090C9439
:10024000820C0C940000E0915522F0E0EB5CFD4D37
:100250008481AAE8B1E2EC91F0E0E657FE4D838399
:100260008C918F5F8C938C91803411F410928A2141
:1002700080918C21803430F4EAE8F1E282818F5F52
:1002800082830895EAE8F1E281E08093CD218181C3
:100290008F5F81838181803411F410928B210895C6
:1002A00080918C21882399F0EAE8F1E282818150E3
:1002B0008283A181B0E0A657BE4D13968C919181A7
:1002C0009F5F91839181903411F410928B21089556
:1002D0001F920F920FB60F9211240BB60F922F930D
:1002E0003F934F935F936F937F938F939F93AF93BE
:1002F000BF93EF93FF9385E392E20E94A206FF91E2
:10030000EF91BF91AF919F918F917F916F915F918D
:100310004F913F912F910F900BBE0F900FBE0F90FA
:100320001F901895CF93C82F43E251E060EA74E024
:1003300085E392E20E94E00540E46C2F85E392E2BF
:100340000E94EB05CF9108955F926F927F928F92FA
:100350009F92AF92BF92CF92DF92EF92FF920F9354
:100360001F93CF93DF93CDB7DEB76497CDBFDEBFCA
:1003700080918C21882309F4F7C0FE013196CE01CB
:1003800045961192E817F907E1F780918C218823AF
:1003900009F4D4C089818B3A69F00AE811E20E941D
:1003A00050018983D80112969C91992309F4C6C003
:1003B0008B3AA9F780918C21882309F4CBC003C024
:1003C0009281992341F00E945001582E8A83B2E114
:1003D000B81750F4ABC0A3EFB1E01197F1F700C02C
:1003E0000000815069F7A2C0882E912C3401B2E040
:1003F0006B0E711CE3E06E16710404F56894EE2434
:10040000E1F8F12C31C0D80112962C91222369F029
:100410000E945001F60181936F01FFEFEF1AFF0A6E
:10042000EA14FB04D1F475011FC0A3EFB1E01197EA
:10043000F1F700C00000915031F716C06E01B3E033
:10044000CB0ED11CA82EB12CE2E0AE0EB11C6894EC
:10045000EE24E1F8F12C0AE811E2D80112969C9101
:10046000992309F46FC0D4CF6E147F0409F05EC0E5
:10047000FE01E80DF91D82818D3C09F057C0B2E004
:100480008B1691047CF0FE01329621E030E02C0FB7
:100490003D1F250D311D80E091918927E217F3075B
:1004A000D9F701C080E0FE01E80DF91D9181981394
:1004B0003DC02091862030E1239FF0011124EA57AE
:1004C000FF4D8B81838384E0881691049CF0DE01CC
:1004D0001496E0E12E9FC0011124FC01E657FF4D68
:1004E0000196850D911D8A579F4D3D913193E817D7
:1004F000F907D9F72F5F20938620203111F410924D
:10050000862080918820803120F48F5F809388201E
:100510002BC0E6E8F0E281E08093892181818F5F42
:100520008183803109F5109287201EC0EAE8F1E24C
:100530001082118212821092CD2116C089818B3ACD
:10054000A9F738CF83EF91E00197F1F700C00000E1
:1005500099E059CFA3EFB1E01197F1F700C0000087
:1005600089E0EAE8F1E22CCF6496CDBFDEBFDF91EF
:10057000CF911F910F91FF90EF90DF90CF90BF90A0
:10058000AF909F908F907F906F905F900895809133
:1005900088200895CF93DF93DC0180918820882301
:1005A000E9F0C6E8D0E2E98180E1E89FF00111249A
:1005B000E757FF4D90E101900D929A95E1F78981FF
:1005C0008F5F803119F08093872002C010928720BE
:1005D000E6E8F0E282818150828381E0DF91CF9171
:1005E0000895DC01E5E3F2E28BEA848783E0860F7D
:1005F00085878C91868770E06D5F7F4F64307105D1
:100600008CF123E030E093E0FD01E20FF31F32971D
:100610004081F901EB5CFD4D44879F5F292F30E05D
:10062000261737078CF315C0FC01EB5CFD4D848564
:1006300038272F5F822F90E086179707ACF3FC01D5
:10064000EB5CFD4D3487FC01EA5CFD4D2DEC24870D
:100650000895E5E3F2E285853685382783E090E06A
:1006600023E0E2CFE5E3F2E285853685382783E0B3
:1006700090E0E5CF0F93CF93DF931F92CDB7DEB716
:100680008091880680FF19C01EC000C0019729F024
:10069000208520FFFACF17C0FFCF8FB789838FB790
:1006A0008F778FBF1BBE21E089E790E0FC0108ED4A
:1006B00004BF208389818FBFEFCF00C087EE93E016
:1006C000E0E8F6E0E5CF0F90DF91CF910F9108952C
:1006D000E0EAF6E08FE18283A0EBB0E08C918F61DD
:1006E0008C9388E1808B08958091A80680958F7106
:1006F0000895E0E0F6E08FEF85838183E0E2F6E0A5
:1007000087E085838183089584E080932606089599
:1007100084E080932506089582E08093260608955C
:1007200082E080932506089581E08093270608954E
:100730008095809304060895E0E8F6E080EF8283D8
:10074000A0EBB0E08C91806F8C9388E1808B089552
:1007500080918806809580710895809188068095A3
:1007600080720895809188068095807408958091A4
:1007700088068095807808955FE050934106E0E018
:10078000F8E045E041838181806A81832FEF3FE07B
:1007900026A337A391E0908350936106E0E0F9E04F
:1007A00041838181806A818326A337A39083089542
:1007B000009709F05DC06130A1F06230A9F585E0D5
:1007C00080934606E0E0F8E086A197A182A793A770
:1007D00086A197A186A797A786A197A180A391A399
:1007E00008952091CF2121111FC01092CF2124E024
:1007F00020934606E0E0F8E012A613A626A137A152
:1008000020A331A3811520E1920714F08FEF9FE020
:10081000E0E0F8E086A797A786A197A180A391A31F
:1008200081E080934506089521E02093CF21813017
:1008300020EF920714F481E090EFA0E4B6E021E00D
:1008400016962C931697E0E0F8E016A617A626A1B8
:1008500037A120A331A391958195910982A793A7F0
:1008600086A197A180A391A384E015968C93089507
:10087000181619060CF4B9CFD7CF009709F05DC050
:100880006130A1F06230A9F585E080936606E0E072
:10089000F9E086A197A182A793A786A197A186A731
:1008A00097A786A197A180A391A308952091CE2117
:1008B00021111FC01092CE2124E020936606E0E0B3
:1008C000F9E012A613A626A137A120A331A3811512
:1008D00020E1920714F08FEF9FE0E0E0F9E086A7B7
:1008E00097A786A197A180A391A381E08093650635
:1008F000089521E02093CE21813020EF920714F457
:1009000081E090EFA0E6B6E021E016962C931697D2
:10091000E0E0F9E016A617A626A137A120A331A38F
:1009200091958195910982A793A786A197A180A30C
:1009300091A384E015968C930895181619060CF46B
:10094000B9CFD7CF1F93CF93DF938093022090939B
:100950000320E0E4F6E090E39283C0EBD0E09883DC
:100960008089887F8360808BE0E8F1E084E6808383
:1009700019E01087A0E0BAE028E613962C931397AD
:1009800051E05C93818343E04187A0E4B8E089EAC9
:1009900013968C93139730E111963C93119726E0B0
:1009A0002C936093002070930120A0E6B6E012968D
:1009B0009C931297988350968C915097887F836070
:1009C00050968C938CE682831287A0E0BBE09AE677
:1009D00013969C9313975C9383834387E0E4F9E039
:1009E0008BEA838331832083DF91CF911F91089518
:1009F000CF92DF92EF92FF92CF93DF9380914C08DA
:100A000080FF09C01092D4211092D5211092D621D6
:100A10001092D7213CC080914C0884FF38C0C0910F
:100A20006808D0916908609102207091032080E0ED
:100A300090E00E945E0B6B017C01BE0180E090E0C3
:100A40000E945E0B9B01AC01C701B6010E94150C10
:100A50009B01AC0160E579EA8BE29CE40E94B60A56
:100A60006093D4217093D5218093D6219093D72180
:100A70002091090A20FF0BC0DC01CB01B058809304
:100A8000D4219093D521A093D621B093D721609102
:100A9000D4217091D5218091D6219091D721DF91D9
:100AA000CF91FF90EF90DF90CF900895CF92DF929B
:100AB000EF92FF92CF93DF9380914C0980FF09C0A2
:100AC0001092D0211092D1211092D2211092D321D4
:100AD0003CC080914C0984FF38C0C0916809D09116
:100AE0006909609100207091012080E090E00E94EF
:100AF0005E0B6B017C01BE0180E090E00E945E0B0A
:100B00009B01AC01C701B6010E94150C9B01AC0111
:100B100060E579EA8BE29CE40E94B60A6093D021FA
:100B20007093D1218093D2219093D3212091090BEE
:100B300020FF0BC0DC01CB01B0588093D0219093F3
:100B4000D121A093D221B093D3216091D021709173
:100B5000D1218091D2219091D321DF91CF91FF902B
:100B6000EF90DF90CF9008950F93CF93DF931F9274
:100B7000CDB7DEB72FB729832FB72F772FBF1BBE77
:100B8000FC0108ED04BF608389818FBF0F90DF9166
:100B9000CF910F910895E0E5F0E08081826080833D
:100BA00060E081E490E00E94B405E0E5F0E081813E
:100BB00081FFFDCF61E080E490E00E94B4050895DC
:100BC000FC01608371834283538310A211A212A29D
:100BD00013A214A20895DC01ED91FC9111974863D2
:100BE0004087ED91FC91660F63870895FC0184A115
:100BF000882351F0A081B18182E019968C9386E020
:100C000083A312A214A2089581E082A313A2A0815B
:100C1000B18118968C9118978B7F18968C9310A29F
:100C200011A20190F081E02D83E081870895FC01FD
:100C3000A081B18118968C9118978B7F18968C9310
:100C4000A081B1811A968C911A9780641A968C9320
:100C500081E083A312A20895CF93DF93FC01A081CA
:100C6000B18118968C911897846018968C9380A106
:100C7000883008F5EF010190F081E02D848598A17E
:100C8000FE01E90FF11D8483EA81FB81199588A19A
:100C90008F5F88A38CA1882349F0E881F98182E0E5
:100CA000818786E08BA31AA21CA20DC0E881F9817E
:100CB00083E0818708C0A081B18186E019968C937A
:100CC00082E083A312A2DF91CF910895FC0181A15C
:100CD000882371F0A081B1811A968C911A9784FFB4
:100CE00007C082E019968C9381E083A312A2089535
:100CF00081A1843198F481A1DF01A80FB11D1C9658
:100D00008C91A081B1811C968C9381A18F5F81A36E
:100D10000190F081E02D83E081870895A081B18169
:100D200082E019968C9383A312A20895DC01ED91C1
:100D3000FC91228521FF03C00E94660608950E944F
:100D40002C060895FC01A081B1811A968C9182FF36
:100D500006C010A211A284E083A312A2089583FF0B
:100D600006C010A211A283E083A312A20895282F27
:100D70002074982F9174913421F4CF010E94F605CC
:100D80000895222321F0CF010E9417060895882399
:100D900024F4CF010E949606089585E083A312A251
:100DA00008954F925F926F927F928F929F92AF922F
:100DB000BF92CF92DF92EF92FF920F931F93CF9348
:100DC000DF93CDB7DEB72C97CDBFDEBFBC01990F47
:100DD000880B990B0E94600B6B017C012AE037EDB8
:100DE00043E25DE30E94150C2091E0213091E12166
:100DF0004091E2215091E3210E94450A4B015C01A0
:100E00006093E0217093E1218093E2219093E321AC
:100E10002091DC213091DD214091DE215091DF21B4
:100E2000C701B6010E94440A2AE037ED43E25DE3C0
:100E30000E94B60A69877A878B879C87C092DC21DB
:100E4000D092DD21E092DE21F092DF2120E030E03F
:100E5000A901C701B6010E94100C1816D4F48091A4
:100E6000E42190E0880F991F880F991FFC01EE582C
:100E7000FF4D20813181428153812D833E834F83F9
:100E80005887FC01EF5DFD4D40805180628073808A
:100E900019C08091E42190E0880F991F880F991F55
:100EA000FC01E25AFF4D20813181428153812D8323
:100EB0003E834F835887FC01E35FFD4D40805180A6
:100EC00062807380A301920160E070EF8FE795E488
:100ED0000E94B60A69837A838B839C839B01AC0151
:100EE000C501B4010E94100C18166CF489819A8116
:100EF000AB81BC818093E0219093E121A093E2211A
:100F0000B093E32120C0A301920160E070EF8FE76E
:100F100095EC0E94B60A69837A838B839C839B013C
:100F2000AC01C501B4010E94B10A882364F429818F
:100F30003A814B815C812093E0213093E121409301
:100F4000E2215093E321A70196016D817E818F817B
:100F500098850E94150C6B017C0120E030E0A9010E
:100F600069857A858B859C850E94150C9B01AC0157
:100F7000C701B6010E94450A6B017C012091E02166
:100F80003091E1214091E2215091E321C301B2016E
:100F90000E94150C9B01AC01C701B6010E94450AD5
:100FA0000E94280B613030EF730714F461E070EF9A
:100FB0008B016115704114F00FEF1FE01016110640
:100FC00024F40E94A80381110FC011230CF50E9484
:100FD000AD0381111BC088279927801B910BE02E40
:100FE000F12E8C01006804C0E12CF12C00E010E02F
:100FF000802F0E949803E091E421F0E0E75FFF4D2D
:1010000060818E2D9F2D0E94D80305C000E010E066
:10101000E02EF12EEDCF2C96CDBFDEBFDF91CF912C
:101020001F910F91FF90EF90DF90CF90BF90AF9006
:101030009F908F907F906F905F904F9008954F9208
:101040005F926F927F928F929F92AF92BF92CF9258
:10105000DF92EF92FF920F931F93CF93DF93CDB761
:10106000DEB72897CDBFDEBFBC01990F880B990B67
:101070000E94600B69837A838B839C832AE037ED1F
:1010800043E25DE30E94150C2091D8213091D921D3
:101090004091DA215091DB210E94450A4B015C010D
:1010A0006093D8217093D9218093DA219093DB212A
:1010B00020E030E0A90169817A818B819C810E94C6
:1010C000100C1816B4F48091E42190E0880F991F59
:1010D000880F991FFC01E65BFF4D408051806280C4
:1010E0007380FC01E750FE4DC080D180E280F38028
:1010F00015C08091E42190E0880F991F880F991FF7
:10110000FC01EA5CFF4D4080518062807380FC01ED
:10111000EB51FE4DC080D180E280F380A7019601A3
:1011200060E070EF8FE795E40E94B60A6D837E83DE
:101130008F8398879B01AC01C501B4010E94100CFC
:1011400018166CF48D819E81AF81B8858093D8216B
:101150009093D921A093DA21B093DB2120C0A7017D
:10116000960160E070EF8FE795EC0E94B60A6D8300
:101170007E838F8398879B01AC01C501B4010E94D7
:10118000B10A882364F48D819E81AF81B8858093F4
:10119000D8219093D921A093DA21B093DB21298122
:1011A0003A814B815C81C301B2010E94150C4B0155
:1011B0005C012091D8213091D9214091DA215091C0
:1011C000DB21C701B6010E94150C9B01AC01C501D2
:1011D000B4010E94450A0E94280B613090EF790704
:1011E00014F461E070EF8B016115704114F00FEFA2
:1011F0001FE01016110624F40E94B203811109C0E9
:1012000011234CF40E94B703882329F000E010E07A
:1012100002C000E010E0E091E421F0E0EC5FFF4D5F
:101220006081C8010E943D042896CDBFDEBFDF91DA
:10123000CF911F910F91FF90EF90DF90CF90BF90D3
:10124000AF909F908F907F906F905F904F90089598
:10125000AC01992324F444275527481B590B9B01C3
:10126000772324F422273327261B370B81E014161B
:1012700015060CF080E0493251050CF082604135D2
:1012800051050CF08460493751050CF08860121646
:1012900013060CF48061293231050CF0806221358F
:1012A00031050CF08064293731050CF080680E940C
:1012B00098030895CF93DF93CDB7DEB7A097CDBF46
:1012C000DEBF0E94CB050E9479030E94BC030E94EE
:1012D00068030E949C0384E08093E4210E947403CD
:1012E000882321F00E9474038093E4218091E421FB
:1012F00090E0880F991F880F991FFC01E25FFF4D56
:1013000060817181FC01EE5DFF4D808191810E94C1
:10131000A2048091E4210E9492018091E4210E9424
:101320009803E0EAF0E0828181608283789416E09D
:101330000E9494032FEF83EC99E02150804090406D
:10134000E1F700C00000115099F782E489831A8206
:101350001B8263E0CE0101960E94F10200E019E1D8
:10136000C12CD12CE12CF12C0F2EF2E4BF2EF02D4C
:101370000E943A030E94A4010E94C702882389F1B7
:10138000CE0141960E94CA028989823021F118F467
:101390008130F1F026C0843019F0853069F021C029
:1013A0000E948403EA88F12C8B898130B9F4F1948E
:1013B000E194F10802E015C00E948403CA88D12C90
:1013C0008B89813069F4D194C194D10802E009C0BD
:1013D0000E948C0306C00E94900303C002E001C07B
:1013E00002E0C7010E94D106C6010E941F08809139
:1013F000E421843001F50E94A803AA24A39481115A
:1014000001C0A12C0E94AD03882319F02A2D22606F
:10141000A22E0E94B203882319F08A2D8460A82E80
:101420000E94B703882319F09A2D9860A92E8A2D5F
:101430000E94980304C0B601C7010E942809B9821E
:101440000E94F8040E94280B6A830E9456050E949D
:10145000280B6B8362E0CE0101960E94F1021150CD
:1014600019F40E94940319E1002321F0015011F4B2
:101470000E9488032FEF87EE93E021508040904038
:10148000E1F700C0000074CF5058BB27AA270E9484
:101490005C0A0C94D60B0E94C80B38F00E94CF0B4C
:1014A00020F039F49F3F19F426F40C94C50B0EF488
:1014B000E095E7FB0C94BF0BE92F0E94E70B58F374
:1014C000BA17620773078407950720F079F4A6F529
:1014D0000C94090C0EF4E0950B2EBA2FA02D0B01E5
:1014E000B90190010C01CA01A0011124FF27591B69
:1014F00099F0593F50F4503E68F11A16F040A22F6F
:10150000232F342F4427585FF3CF469537952795DF
:10151000A795F0405395C9F77EF41F16BA0B620BDE
:10152000730B840BBAF09150A1F0FF0FBB1F661F25
:10153000771F881FC2F70EC0BA0F621F731F841F68
:1015400048F4879577956795B795F7959E3F08F08E
:10155000B0CF9395880F08F09927EE0F9795879550
:1015600008950E949B0B08F481E008950E94CA0A26
:101570000C94D60B0E94CF0B58F00E94C80B40F081
:1015800029F45F3F29F00C94BF0B51110C940A0C05
:101590000C94C50B0E94E70B68F39923B1F3552314
:1015A00091F3951B550BBB27AA2762177307840776
:1015B00038F09F5F5F4F220F331F441FAA1FA9F30C
:1015C00035D00E2E3AF0E0E832D091505040E695FA
:1015D000001CCAF72BD0FE2F29D0660F771F881F5B
:1015E000BB1F261737074807AB07B0E809F0BB0B4E
:1015F000802DBF01FF2793585F4F3AF09E3F510562
:1016000078F00C94BF0B0C940A0C5F3FE4F3983E07
:10161000D4F3869577956795B795F7959F5FC9F74A
:10162000880F911D9695879597F90895E1E0660FCB
:10163000771F881FBB1F621773078407BA0720F044
:10164000621B730B840BBA0BEE1F88F7E0950895AD
:101650000E942F0B6894B1110C940A0C08950E94FB
:10166000EF0B88F09F5798F0B92F9927B751B0F03A
:10167000E1F0660F771F881F991F1AF0BA95C9F716
:1016800014C0B13091F00E94090CB1E008950C949F
:10169000090C672F782F8827B85F39F0B93FCCF352
:1016A000869577956795B395D9F73EF49095809593
:1016B000709561957F4F8F4F9F4F0895E89409C0B3
:1016C00097FB3EF490958095709561957F4F8F4F75
:1016D0009F4F9923A9F0F92F96E9BB279395F6958B
:1016E000879577956795B795F111F8CFFAF4BB0F09
:1016F00011F460FF1BC06F5F7F4F8F4F9F4F16C06D
:10170000882311F096E911C0772321F09EE8872FF6
:10171000762F05C0662371F096E8862F70E060E0B2
:101720002AF09A95660F771F881FDAF7880F96952B
:10173000879597F90895990F0008550FAA0BE0E8CF
:10174000FEEF16161706E807F907C0F01216130683
:10175000E407F50798F0621B730B840B950B39F4C3
:101760000A2661F0232B242B252B21F408950A2629
:1017700009F4A140A6958FEF811D811D089597F969
:101780009F6780E870E060E008959FEF80EC089527
:1017900000240A9416161706180609060895002450
:1017A0000A9412161306140605060895092E0394CA
:1017B000000C11F4882352F0BB0F40F4BF2B11F43E
:1017C00060FF04C06F5F7F4F8F4F9F4F089557FD9D
:1017D0009058440F551F59F05F3F71F04795880F9F
:1017E00097FB991F61F09F3F79F087950895121636
:1017F00013061406551FF2CF4695F1DF08C01616E2
:1018000017061806991FF1CF869571056105089492
:101810000895E894BB2766277727CB0197F90895A9
:101820000E949B0B08F48FEF08950E94280C0C94E3
:10183000D60B0E94C80B38F00E94CF0B20F09523E6
:1018400011F00C94BF0B0C94C50B11240C940A0CD2
:101850000E94E70B70F3959FC1F3950F50E0551F61
:10186000629FF001729FBB27F00DB11D639FAA27F5
:10187000F00DB11DAA1F649F6627B00DA11D661F44
:10188000829F2227B00DA11D621F739FB00DA11D65
:10189000621F839FA00D611D221F749F3327A00D1F
:1018A000611D231F849F600D211D822F762F6A2FBB
:1018B00011249F5750409AF0F1F088234AF0EE0F20
:1018C000FF1FBB1F661F771F881F91505040A9F74D
:1018D0009E3F510580F00C94BF0B0C940A0C5F3FA7
:1018E000E4F3983ED4F3869577956795B795F79589
:1018F000E7959F5FC1F7FE2B880F911D9695879501
:0819000097F90895F894FFCF58
:1019080064006400000101020100010202010100FB
:101918000000640000006C0F000064000000240553
:101928000000010000006C0F00006C0F0000640054
:10193800000024050000000000000000F041000045
:10194800C841000020420000A04100000000000043
:10195800F04100000C42000020420000A0410000BD
:10196800000000002042000070420000C841000052
:10197800A04100000000000020420000A04100003B
:06198800C8410000A0416F
:00000001FF
