S01200006932634C6564546573742E737265635F
S11300000C9400010C9414010C9414010C9414012C
S11300100C9414010C9414010C9414010C94140108
S11300200C9414010C9414010C9414010C941401F8
S11300300C9414010C9414010C9414010C941401E8
S11300400C9414010C9414010C9414010C941401D8
S11300500C9414010C9414010C9414010C941401C8
S11300600C9414010C9414010C9414010C941401B8
S11300700C9414010C9414010C9414010C941401A8
S11300800C9414010C9414010C9414010C94140198
S11300900C9414010C9414010C9414010C94140188
S11300A00C9414010C9414010C9414010C94140178
S11300B00C9414010C945B010C9414010C94140121
S11300C00C9414010C9414010C9414010C94140158
S11300D00C9414010C9414010C9414010C94140148
S11300E00C9414010C9414010C9414010C94140138
S11300F00C9414010C9414010C9414010C94140128
S11301000C9414010C9414010C9414010C94140117
S11301100C9414010C9414010C9414010C94140107
S11301200C9414010C9414010C9414010C941401F7
S11301300C9414010C9414010C9414010C941401E7
S11301400C9414010C9414010C9414010C941401D7
S11301500C9414010C9414010C9414010C941401C7
S11301600C9414010C9414010C9414010C941401B7
S11301700C9414010C9414010C9414010C941401A7
S11301800C9414010C9414010C9414010C94140197
S11301900C9414010C9414010C9414010C94140187
S11301A00C9414010C9414010C9414010C94140177
S11301B00C9414010C9414010C9414010C94140167
S11301C00C9414010C9414010C9414010C94140157
S11301D00C9414010C9414010C9414010C94140147
S11301E00C9414010C9414010C9414010C94140137
S11301F00C9414010C9414010C9414010C94160125
S113020011241FBECFEFCDBFDFE5DEBF00E00CBF82
S113021021E2A0E0B0E201C01D92AD36B207E1F7E1
S11302200E94F8030C943B040C940000E0916821B4
S1130230F0E0E85BFE4D8481A4E0B1E2EC91F0E0F3
S1130240EC5FFE4D83838C918F5F8C938C91803413
S113025011F41092042180910621803430F4E4E0FA
S1130260F1E282818F5F82830895E4E0F1E281E02C
S11302708093472181818F5F81838181803411F450
S113028010920521089580910621882399F0E4E0D5
S1130290F1E2828181508283A181B0E0AC5FBE4DE6
S11302A013968C9191819F5F91839181903411F485
S11302B01092052108951F920F920FB60F921124E8
S11302C00BB60F922F933F934F935F936F937F934C
S11302D08F939F93AF93BF93EF93FF9388E491E23F
S11302E00E94C903FF91EF91BF91AF919F918F91AC
S11302F07F916F915F914F913F912F910F900BBE22
S11303000F900FBE0F901F901895CF93C82F46E102
S113031051E060EA74E088E491E20E94070340E45B
S11303206C2F88E491E20E941203CF9108955F92AA
S11303306F927F928F929F92AF92BF92CF92DF92F1
S1130340EF92FF920F931F93CF93DF93CDB7DEB756
S11303506497CDBFDEBF80910621882309F4F7C0DE
S1130360FE013196CE0145961192E817F907E1F79F
S113037080910621882309F4D4C089818B3A69F0DD
S113038004E011E20E9443018983D80112969C91F2
S1130390992309F4C6C08B3AA9F7809106218823D2
S11303A009F4CBC003C09281992341F00E94430118
S11303B0582E8A83B2E1B81750F4ABC0A3EFB1E072
S11303C01197F1F700C00000815069F7A2C0882E90
S11303D0912C3401B2E06B0E711CE3E06E167104D3
S11303E004F56894EE24E1F8F12C31C0D80112969A
S11303F02C91222369F00E944301F60181936F013D
S1130400FFEFEF1AFF0AEA14FB04D1F475011FC0D1
S1130410A3EFB1E01197F1F700C00000915031F75C
S113042016C06E01B3E0CB0ED11CA82EB12CE2E0B5
S1130430AE0EB11C6894EE24E1F8F12C04E011E254
S1130440D80112969C91992309F46FC0D4CF6E14ED
S11304507F0409F05EC0FE01E80DF91D82818D3C28
S113046009F057C0B2E08B1691047CF0FE0132967D
S113047021E030E02C0F3D1F250D311D80E09191CE
S11304808927E217F307D9F701C080E0FE01E80DE0
S1130490F91D918198133DC02091002030E1239FE4
S11304A0F0011124E050F04E8B81838384E08816A0
S11304B091049CF0DE011496E0E12E9FC00111240A
S11304C0FC01EC5FFF4D0196850D911D8050904E0F
S11304D03D913193E817F907D9F72F5F2093002056
S11304E0203111F41092002080910220803120F4F8
S11304F08F5F809302202BC0E0E0F0E281E08093E4
S1130500032181818F5F8183803109F5109201205D
S11305101EC0E4E0F1E2108211821282109247219F
S113052016C089818B3AA9F738CF83EF91E0019700
S1130530F1F700C0000099E059CFA3EFB1E01197A3
S1130540F1F700C0000089E0E4E0F1E22CCF64960A
S1130550CDBFDEBFDF91CF911F910F91FF90EF9040
S1130560DF90CF90BF90AF909F908F907F906F90CF
S11305705F900895809102200895CF93DF93DC016A
S1130580809102208823E9F0C0E0D0E2E98180E193
S1130590E89FF0011124ED5FFF4D90E101900D9271
S11305A09A95E1F789818F5F803119F0809301205A
S11305B002C010920120E0E0F0E282818150828347
S11305C081E0DF91CF910895E0E0F6E08FEF85833D
S11305D08183E0E2F6E087E085838183089584E007
S11305E080932606089584E080932506089582E08A
S11305F080932606089582E080932506089581E07D
S11306008093270608958095809304060895FC013D
S1130610608371834283538310A211A212A213A296
S113062014A20895DC01ED91FC9111974863408771
S1130630ED91FC91660F63870895FC0184A18823E2
S113064051F0A081B18182E019968C9386E083A356
S113065012A214A2089581E082A313A2A081B18101
S113066018968C9118978B7F18968C9310A211A2D0
S11306700190F081E02D83E081870895FC01A08141
S1130680B18118968C9118978B7F18968C93A081C2
S1130690B1811A968C911A9780641A968C9381E092
S11306A083A312A20895CF93DF93FC01A081B181AB
S11306B018968C911897846018968C9380A1883032
S11306C008F5EF010190F081E02D848598A1FE01E9
S11306D0E90FF11D8483EA81FB81199588A18F5F5D
S11306E088A38CA1882349F0E881F98182E081877D
S11306F086E08BA31AA21CA20DC0E881F98183E0D5
S1130700818708C0A081B18186E019968C9382E02C
S113071083A312A2DF91CF910895FC0181A18823C4
S113072071F0A081B1811A968C911A9784FF07C049
S113073082E019968C9381E083A312A2089581A18B
S1130740843198F481A1DF01A80FB11D1C968C910E
S1130750A081B1811C968C9381A18F5F81A30190AC
S1130760F081E02D83E081870895A081B18182E04A
S113077019968C9383A312A20895DC01ED91FC9148
S1130780228521FF03C00E948D0308950E94530314
S11307900895FC01A081B1811A968C9182FF06C054
S11307A010A211A284E083A312A2089583FF06C0BD
S11307B010A211A283E083A312A20895282F20740B
S11307C0982F9174913421F4CF010E941D03089550
S11307D0222321F0CF010E943E030895882324F4AC
S11307E0CF010E94BD03089585E083A312A208955A
S11307F0CF93DF93CDB7DEB76097CDBFDEBF0E9446
S1130800E40286E00E948501E0EAF0E082818160F2
S11308108283789400E012E30E9497010E94BA0256
S11308208823B9F0CE0101960E94BD0289818230ED
S113083039F0833041F0813061F40E94F70209C03D
S11308400E94FB0206C00E94EF028A810E940303F9
S11308500AE0115019F40E94FF0212E3002321F070
S1130860015011F40E94F30287E893E10197F1F734
S10D087000C00000D1CFF894FFCFC0
S9030000FC
